:020000040000FA
:10000000407000206D0200008102000083020000A9
:10001000850200008502000085020000000000004B
:100020000000000000000000000000008502000049
:10003000850200000000000085020000850200002B
:100040008502000085020000850200008502000094
:100050008502000085020000850200008502000084
:100060008502000085020000850200008502000074
:100070008502000085020000850200008502000064
:100080008502000085020000850200008502000054
:100090008502000085020000850200008502000044
:1000A0008502000085020000850200008502000034
:1000B0008502000085020000850200008502000024
:1000C0008502000085020000850200008502000014
:1000D0008502000085020000850200008502000004
:1000E000850200008502000000000000850200007B
:1000F00085020000850200008502000085020000E4
:1001000085020000850200008502000085020000D3
:1001100000000000000000008502000085020000D1
:1001200085020000850200008502000085020000B3
:1001300085020000850200008502000085020000A3
:1001400000000000000000000000000000000000AF
:100150008502000085020000850200008502000083
:10016000000000000000000000000000000000008F
:10017000000000000000000000000000000000007F
:10018000000000000000000000000000000000006F
:10019000000000000000000000000000000000005F
:1001A000000000000000000000000000000000004F
:1001B0008502000085020000850200008502000023
:1001C0008502000085020000850200008502000013
:1001D0008502000085020000850200008502000003
:1001E000850200008502000085020000000000007A
:1001F000000000008502000085020000850200006A
:1002000085020000850200000000000000000000E0
:1002100085020000850200008502000085020000C2
:1002200085020000850200008502000085020000B2
:1002300085020000850200008502000085020000A2
:100240008502000085020000850200008502000092
:100250008502000085020000850200008502000082
:100260008502000085020000850200004EF68850DD
:10027000CEF20000016841F47001016000F004B8A2
:10028000FEE7FEE7FEE7000000F002F800F05CF891
:100290000AA090E8000C82448344AAF10107DA45E1
:1002A00001D100F051F8AFF2090EBAE80F0013F0D7
:1002B000010F18BFFB1A43F0010318471099020001
:1002C000309902000A444FF0000C10F8013B13F083
:1002D000070408BF10F8014B1D1108BF10F8015B9F
:1002E000641E05D010F8016B641E01F8016BF9D192
:1002F00013F0080F1EBF10F8014BAD1C0C1B09D1E9
:100300006D1E58BF01F801CBFAD505E014F8016B5A
:1003100001F8016B6D1EF9D59142D6D370470000EC
:100320000023002400250026103A28BF78C1FBD8FE
:10033000520728BF30C148BF0B6070471FB526F079
:10034000B0FC1FBD10B510BD00F05BF91146FFF702
:10035000F5FF22F0F3FE00F079F903B4FFF7F2FFA6
:1003600003BC00F07DF90000EFF3108072B6704717
:10037000EFF310807047EFF3108062B6704730BF24
:10038000704780F311887047EFF3118070470000C9
:100390000138FDD17047000002480349034A044B6D
:1003A000704700004064002040700020406800203A
:1003B0004068002070B50446051F00F009F9006888
:1003C000002C14BF446870BD002C18BFAC423CBF69
:1003D00020466468F8D301680A18AA4218BF45602D
:1003E00003D12A6805461144016028684119A142D9
:1003F0001CBF6C6070BD616869602168084428603A
:1004000070BD10B5431C02E010F8011B71B18107EB
:10041000FAD14FF0013202C88C1A8C4314EAC2118F
:10042000F9D0C01A0A0603D0C01E10BDC01A10BDF4
:100430000A0401D0801E10BD0902FCD0401E10BD70
:10044000032A40F2308010F0030C00F0158011F800
:10045000013BBCF1020F624498BF11F801CB00F8D8
:10046000013B38BF11F8013BA2F1040298BF00F82C
:1004700001CB38BF00F8013B11F0030300F02980E5
:10048000083AC0F0088051F8043B083A51F804CB10
:10049000A0E80810F5E7121D5CBF51F8043B40F8D6
:1004A000043BAFF30080D20724BF11F8013B11F8E1
:1004B00001CB48BF11F8012B24BF00F8013B00F825
:1004C00001CB48BF00F8012B704701B5FFF7B8FF1B
:1004D00001BD10B5203AC0F00B80B1E81850203AA9
:1004E000A0E81850B1E81850A0E81850BFF4F5AFD4
:1004F0005FEA027C24BFB1E81850A0E8185044BF5E
:1005000018C918C0BDE810405FEA827C24BF51F8CA
:10051000043B40F8043B08BF7047D20728BF31F8BE
:10052000023B48BF11F8012B28BF20F8023B48BF0F
:1005300000F8012B70474FF000020429C0F0128030
:1005400010F0030C00F01B80CCF1040CBCF1020F86
:1005500018BF00F8012BA8BF20F8022BA1EB0C015B
:1005600000F00DB85FEAC17C24BF00F8012B00F851
:10057000012B48BF00F8012B70474FF0000200B577
:10058000134694469646203922BFA0E80C50A0E8B6
:100590000C50B1F12001BFF4F7AF090728BFA0E864
:1005A0000C5048BF0CC05DF804EB890028BF40F830
:1005B000042B08BF704748BF20F8022B11F0804F72
:1005C00018BF00F8012B7047704770477047000054
:1005D00000487047E463002010B500F00DF8006893
:1005E00010BD10B5044600F007F8046010BD00000F
:1005F00000487047DC63002000487047DC6300203F
:1006000070477546FFF7F4FFAE460500694653464E
:1006100020F00700854618B020B5FFF7BDFEBDE805
:1006200020404FF000064FF000074FF000084FF059
:10063000000B21F00701AC46ACE8C009ACE8C009EA
:10064000ACE8C009ACE8C0098D46704710B5044657
:10065000AFF300802046BDE81040FFF77EBE0000EB
:1006600001491820ABBEFEE72600020010B508487D
:100670001AF0EEFB074C0021204600F00DF8044A6A
:100680002046203ABDE81040002100F040B80000AC
:10069000B02100200080034001228A40C2607047E0
:1006A00001228A40C260816811438160704782687C
:1006B0000A438260704770B514461BF0CFFE0546B2
:1006C0002146284609F0FEF82846BDE8704009F0AA
:1006D0009BB80A0C01F00F031204012199400A4350
:1006E000816A0A438262704730B5890045690F24E8
:1006F0008C4002F00F02A5438A4015434561026A0F
:1007000003F00303A2438B401A43026230BD00EBA7
:1007100041114031002002E08B6808C2401CCB68C8
:10072000DB0501D40828F7D37047026801238B400A
:100730001A430260704730B500EB41104030910021
:1007400004680F228A4003F00F0594438D402C4328
:1007500004608469C3F3032594438D402C43846172
:100760004468C3F3031594438D402C43446013F451
:10077000702F4FF001050BD044699443C3F302423C
:100780008A402243426102698D402A43026130BDA2
:1007900002698D40AA43026130BD00003EB5294B7D
:1007A0002749596008229A600120587098702033B8
:1007B00059609A6058709870203359609A605870E8
:1007C0009870203359609A60587098700024009493
:1007D0000194029469466F2017F032FF01A970203E
:1007E00017F02EFF02A9712017F02AFF00981BF0C6
:1007F00068FF154D58B12C7001981BF062FF70B165
:100800006C7002981BF05DFF88B1AC703EBD9DED31
:10081000000ABCEEC00A10EE100A2870ECE79DED4D
:10082000010ABCEEC00A10EE100A6870E9E79DEDFF
:10083000020ABCEEC00A10EE100AA8703EBD00000D
:1008400000700040A05B0020680F00202DE9F04FF1
:10085000834880789FED830ADFED830ADFF800A2EA
:1008600001280AF1080A26D0804890ED011AB8EE56
:10087000411A21EE001AC1EE201ACAED001A90EDBD
:10088000021AB8EE411A21EE000A80EE201A8AED13
:10089000011A734BDAF80020754FDFF8D881012078
:1008A00000211B1D4FF0040C4FF00209B2F17C5FD8
:1008B00017DC19702BE0704890ED001AB8EE411A61
:1008C00021EE001AC1EE201ACAED001A90ED011AAD
:1008D000B8EE411A21EE000A80EE201A8AED011AC4
:1008E000D7E7BA4202DC83F800C010E0424502DCE0
:1008F00083F800900BE0614CA24202DC03221A70E4
:1009000005E05F4CA24201DC187000E019705D4AFE
:1009100093F800B002F1200402F1400502F16006F4
:10092000BBF1050F1DD2DFE80BF003080D12170015
:10093000507060706870707017E05170607068700F
:10094000707012E050706170687070700DE05070DF
:1009500060706970707008E05070607068707170DD
:1009600003E05070607068707070DAF80420B2F1C3
:100970007C5F01DC59701BE0434CA24202DC052283
:100980005A7015E0BA4202DC83F801C010E042451B
:1009900002DC03225A700BE0384CA24202DC83F8DE
:1009A000019005E0364CA24201DC587000E059701D
:1009B0005B78364A062B47D2DFE803F0030F1A258F
:1009C000303B82F8410082F8610082F8810082F8B1
:1009D000A10082F8C100BDE8F08F82F8410082F8E2
:1009E000611082F8810082F8A10082F8C100F2E76C
:1009F00082F8410082F8610082F8810082F8A1004B
:100A000082F8C110E7E782F8410082F8610082F8BD
:100A1000811082F8A10082F8C100DCE782F8410071
:100A200082F8610082F8810082F8A11082F8C1008A
:100A3000D1E782F8411082F8610082F8810082F8E3
:100A4000A10082F8C100C6E782F8410082F8610087
:100A500082F8810082F8A10082F8C100BBE70000A3
:100A6000680F00203333534000F07F459021002071
:100A70009A99D93F666606409C0300209A991940CE
:100A800000004040A05B0020CDCCAC3F841900208A
:100A90002DE9FE4FFFF7DAFE17F002FE17F01CFEFD
:100AA0007D4D287800287DD07C487C4C0826007835
:100AB000143C7B4F40F2DC584FF47A794FF4FA6AD9
:100AC0004FF0010B032804D002281ED001283CD08F
:100AD00049E085F803B0A4F80080A4F802804A46F3
:100AE000A4F80490A4F806A0A4F808A06281A2814A
:100AF000E281CDE9016B0023B6EE000A41F28831B4
:100B00006848009701F0A3FE2DE085F803B0664821
:100B10000088012827D1A4F80080A4F802804A4662
:100B2000A4F80490A4F80680A4F808A06281A28129
:100B3000E281CDE9016B0023B6EE000A41F2883173
:100B40005848009701F083FE0DE00020E870CDE9E1
:100B5000007602900023B6EE000A4A4641F2883140
:100B6000504801F074FE4D4820300078032816D01C
:100B7000022814D0012812D10020E8704A490A88BE
:100B8000012A0CD10880CDE9007602900023B6EE50
:100B9000000A4A4641F28831424801F058FE3F4877
:100BA000403000E076E00078032848D0022802D0E8
:100BB000012823D043E085F803B03B480088012892
:100BC0003DD1A4F80080A4F80280A4F80480A4F821
:100BD0000680A4F808A0A4F80AA04A46A4F80C903D
:100BE000A4F80EA0CDE9016B0023B6EE000A41F295
:100BF00088312C48009701F02AFE20E085F803B0E8
:100C00002948008801281AD1A4F80080A4F802809D
:100C1000A4F80480A4F80680A4F808A04A46A4F822
:100C20000A90A281A4F80EA0CDE9016B0023B6EED4
:100C3000000A41F288311B48009701F008FE17486E
:100C400060300078032825D0022823D0012821D144
:100C500085F803B01448008801281BD1A4F800804F
:100C6000A4F80280A4F80480A4F80680A4F808A0E0
:100C70004A46A4F80A90A4F80CA0A4F80EA0CDE966
:100C8000016B0023B6EE000A41F288310548009757
:100C900001F0DDFDBDE8FE8F680F0020A05B0020A5
:100CA00000500240781800201403002010B52A4C90
:100CB000204619F03DFB204619F04EFB0028FAD0E3
:100CC000264819F035FB0821254806F012FB234879
:100CD000401E19F02DFB234C0421204606F009FB91
:100CE0000821204606F005FB00231F4C1A46194632
:100CF0002046FFF7F9FC00231A4619462046FFF765
:100D00001AFD0423012200212046FFF714FD65236C
:100D1000022200212046FFF70EFD00212046FFF7AA
:100D2000BBFC00212046FFF700FD00212046FFF715
:100D3000B7FC01212046FFF7BAFC1E2008F064FD35
:100D40000A4A00212046FFF7B6FCE021BDE810402A
:100D50001E2008F0A5BD0000003800F0040800F0D7
:100D60000040024000700040008003406D0600001B
:100D700006494888401C80B24880022805D90020D6
:100D8000488000210248FFF7A4BC70478C03002074
:100D9000008003402DE9F04F87B0002404940594AF
:100DA0000694604F012607F1600597F80180B8F1BD
:100DB000050F53D800215C48DFF870A1DFF870C13F
:100DC000D0F80090D1451FDC9CF8740001281BD19D
:100DD000002004AB9FED570ADFED570A0CEB800BA8
:100DE00003EB8002DBED0D1A92ED001A61EE801A22
:100DF00001EEA01A82ED001A401C80B20328EDD348
:100E0000491C89B28CF8744005F80860B1F57A7F06
:100E1000D8D300EE101ADDED040A4848B8EE400AB7
:100E200008EB480200EB820080EE801A80ED001A89
:100E300000EE101ADDED050AB8EE400A80EE801AC9
:100E400080ED011A00EE101ADDED060AB8EE400A38
:100E500080EE801A80ED021A062078702878697872
:100E6000EA780840A9781140084029790840697952
:100E7000084201D0F87818B1002007B0BDE8F08F23
:100E8000FE70BC70274A2D49743230392B4801F06E
:100E9000AFFE387000216C54491C89B20629FAD380
:100EA0000225274FDFF89C804FF4FA6941F2883A17
:100EB00001280FD03C80CDE9008500239FED220A58
:100EC0004A4651462148029401F0C1FC2048048062
:100ED0000120D2E71948303890ED021AD0ED010A0E
:100EE00090ED000A02201BF09FFA0E48743090ED3E
:100EF000021AD0ED010A90ED000A05201BF094FAC9
:100F000010F08CFC3C80CDE900850023B6EE000A91
:100F10004A4651460D48029401F099FC0D4846722C
:100F2000D6E7000008000020E40B00200000A041EC
:100F3000581D00200AE81C41000080399C16002042
:100F40008800002000500240CDCCCC3D501800203D
:100F5000CE020020FE2500202DE9FE4F0024DFF800
:100F600004C3C34EC34FDFF81083BCF8003040F217
:100F70001A4EDFF8F4A2DFF8F4B230683968DFF80F
:100F8000FC92D8F8002073450BD8BD4DA84208DB71
:100F9000594506D3524504DBB9F80A506D1CA9F82F
:100FA0000A5040F21A4C002563450BD8B44B9842C6
:100FB00008DB594506D3524504DBB9F80A00B0F501
:100FC000167F03D2AF48007802283FD1AE48008890
:100FD000E0BBAE490120088089F8020089F8005082
:100FE0000221AB4A00239FEDAB0ACDE9002102901C
:100FF0004FF47A725100A84801F029FC062089F8C4
:10100000010089F80350A9F80A509C4A60329FED0C
:10101000A30AA349155504EB440001EB800080EDC1
:10102000000A80ED010A80ED020A641CA4B2062CBD
:10103000F0D39C490A200880012018F0F3F8012021
:1010400018F00EF9984805808E48057099F802004E
:1010500001287DD1834840F21A4C944A0188944B70
:10106000944C614512D8DFF850E2306870450DD3DA
:1010700097ED000AB5EEC00AF1EE10FA06D198ED30
:10108000000AB5EEC00AF1EE10FA7CD020780128F3
:101090007FD0614511D896ED000AB5EEC00AF1EE99
:1010A00010FA0AD1D7F800E0D64506DB98ED000A21
:1010B000B5EEC00AF1EE10FA7CD002287AD0614574
:1010C00011D896ED000AB5EEC00AF1EE10FA0AD179
:1010D000D7F800E0DE4506D398ED000AB5EEC00A69
:1010E000F1EE10FA78D0032876D0614511D896ED4C
:1010F000000AB5EEC00AF1EE10FA0AD197ED000A27
:10110000B5EEC00AF1EE10FA03D1D8F800E0D645EA
:1011100074DA042872D0614511D896ED000AB5EE54
:10112000C00AF1EE10FA0AD197ED000AB5EEC00A36
:10113000F1EE10FA03D1D8F800A0DA4570D20528F4
:101140006ED0614513D831684D4EB1420FDD00E0DD
:101150001DE097ED000AB5EEC00AF1EE10FA06D1D7
:1011600098ED000AB5EEC00AF1EE10FA69D0062833
:1011700067D0B9F80C004008A9F80C00B9F80C00C9
:10118000C82804D301E004E014E0A9F80C50BDE83D
:10119000FE8FB9F80C00401C80B2A9F80C0014288E
:1011A00002D22078012803D189F8015015801D80D2
:1011B0002570E3E7B9F80C10491C89B2A9F80C10A6
:1011C000142901D2022804D1012089F801001580D8
:1011D0001D802570D2E7FFE7B9F80C10491C89B2D1
:1011E000A9F80C10142901D2032804D1022089F88F
:1011F000010015801D802570C0E7FFE7B9F80C10CD
:10120000491C89B2A9F80C10142901D2042804D170
:10121000032089F8010015801D802570AEE7FFE7E7
:10122000B9F80C10491C89B2A9F80C10142901D284
:10123000052804D1042089F8010015801D8025703F
:101240009CE7B9F80C10491C89B2A9F80C101429B4
:1012500001D2062804D1052089F8010015801D80DF
:1012600025708BE7100300200000D2410000D2C19E
:101270003803002034030020300300200800002041
:1012800000001643D7070020140300208800002028
:1012900000500240CDCC4C3E501800200000000011
:1012A0009C160020CE0200201E0300201803002000
:1012B0001A030020D8070020000016C32DE9FE4FB6
:1012C000DFF84CB3D14F00249BF80C0007F5A5665E
:1012D000A6F51B7837F81000A6F57F79A6F2C4456D
:1012E000002821D0CB4FDFF830A301284DD01F2894
:1012F0007ED21EF06FFD9BF80C0055F820100529DA
:1013000077D2D7ED010A97ED000A22F07FFE10EEAA
:10131000100A50456EDC9BF80C0055F82010491C53
:1013200045F82010BDE8FE8F1EF054FD24F094FB1C
:10133000BA4890ED001A86ED021AB5486830018867
:101340000520B1FBF0F09BF80C1049F82100D6ED18
:10135000000A98ED000A30EE800A8DED000AD6ED05
:10136000010AD8ED201A70EEA10ACDED010A8DED2B
:10137000021A0121084607F0ADFB9BF80C00012181
:1013800027F8101045F82040CCE71EF023FD9BF80D
:101390000C0055F82000052819D2D7ED010A97ED69
:1013A000000A22F033FE10EE100A504507DC9BF8CD
:1013B0000C0055F82010491C45F82010B2E79BF8A6
:1013C0000C0055F82010490845F82010AAE796EDC2
:1013D000000AD8ED010A30EE200A8DED000AD6EDA4
:1013E000010A98ED211A70EE810ACDED010A02E0A2
:1013F00054E01BE012E096ED021A8DED021A012175
:10140000084607F067FB81499BF80C0031F8102073
:10141000521C21F8102045F8204083E79BF80C006F
:1014200055F82010490845F820107BE7774F784A97
:1014300037F81010683232F811300522B3FBF2F29F
:1014400049F8202008EB810096ED000AD0ED000A53
:1014500030EE200A8DED000A96ED011AD0ED200A3B
:1014600071EE200ACDED010A96ED021A8DED021AF9
:101470000121084607F02EFB9BF80C0037F81010EE
:10148000491C27F8101045F820406548B0F8560070
:10149000012893D163498870088043E735D11EF055
:1014A00099FC9BF80C0055F82010052919D2D7EDAE
:1014B000010A97ED000A22F0A9FD10EE100A50452E
:1014C00007DC9BF80C0055F82010491C45F820104B
:1014D00028E79BF80C0055F82010490845F8201023
:1014E00020E7C82149F82010484A32F81010491C5A
:1014F00022F8101045F820404948B0F8560001285D
:101500008BD14849887008800CE7202808D03F4ECE
:1015100021283CD0222864D0BDE8FE4F1EF05ABCE2
:101520001EF058FC9BF80C0059F8201011B1491E10
:1015300049F8201059F820100029AED134496831FB
:10154000CA8F0521B2FBF1F149F82010D6ED000A4F
:1015500098ED1F0A30EE800A8DED000AD6ED010AE3
:1015600098ED3F1A70EE810ACDED010A96ED021A50
:101570008DED021A0121084607F0ACFA23499BF8C9
:101580000C0031F81020521C21F81020CAE61EF081
:1015900021FC9BF80C0055F82010052919D2D7ED35
:1015A000010A97ED000A22F031FD10EE100A5045B5
:1015B00007DC9BF80C0055F82010491C45F820105A
:1015C000B0E69BF80C0055F82010490845F82010AB
:1015D000A8E636F81010491C26F8101045F82040EF
:1015E000A0E6114880F83040104991ED260A80EDC0
:1015F000060A00200EF090FDBDE8FE4FFBEE0E0A3D
:101600009FED0B0A022005F0CDB90000205C002000
:10161000800F0020300E00200000A040F03F00208E
:10162000305A0020B42B0020C4530020581C002046
:10163000000000002DE9F04F2DED028B83B0DFEDAF
:10164000A28AA34FDFF884A24FF0010BF87C3AF88E
:1016500010009FEDA08A0AF5A568A8F57F75002403
:1016600005F1C809A5F1C80600280ED001283BD015
:1016700002287CD003287BD004287AD003B0BDECAC
:10168000028BBDE8F04F1EF0A5BB1EF0A3FB9248F5
:1016900064214161B7EE000A80ED060A80F802B0CD
:1016A00042F210710180B0EE481A88ED021A98EDEE
:1016B000000AD8ED010A8DED000ACDED010A8DED8D
:1016C000021A0121084607F005FAF87C2AF810B042
:1016D00046F8204049F82040C82145F8201003B0C2
:1016E000BDEC028BBDE8F08F1EF074FBF97C59F85D
:1016F0002100062817D303202AF8110046F82140BC
:1017000045F8214049F8214098ED000AD8ED010A3A
:10171000B0EE481A03B00121BDEC028B0846BDE8CB
:10172000F04F07F0D7B9052200211EF0AFFD80B2BF
:10173000F97C55F8212012B1521E45F8212055F8A8
:1017400021100029CBD1654A32F92010233900EE4F
:10175000101AB8EEC00A02EB8000B0F9020023387C
:1017600000EE900AF8EEE00AB0EE481A02E01CE043
:1017700068E092E0D8ED001A31EE800A8DED000AA3
:10178000D8ED011A71EEA00ACDED010A8DED021A15
:101790000121084607F09EF9F87C02212AF8101072
:1017A00046F8204045F8204099E71EF013FBF87CEE
:1017B00056F8201003291CD2494890ED1D1A4948BB
:1017C000D0ED010A90ED000A22F02FFC10EE100A75
:1017D0004549884206DCF87C56F82010491C46F83A
:1017E000201012E0F87C56F82010490846F8201026
:1017F0000BE02AF810B046F82040642145F820108C
:1018000059F82010491C49F82010F87C59F820108C
:101810000629C9D303212AF8101046F8204045F8BC
:10182000204049F8204098ED000AD8ED010AB0EEBA
:10183000481A03B00121BDEC028B0846BDE8F04F09
:1018400007F048B91EF0C6FAF87C56F820100529B2
:1018500019D22448D0ED010A90ED000A22F0D6FBFF
:1018600010EE100A2149884206DCF87C56F8201058
:10187000491C46F8201032E7F87C56F82010490839
:1018800046F820102BE73AF81010491C2AF81010DF
:1018900046F8204045F8204021E7154880F83040C0
:1018A0001449D1ED260AC0ED060A00200EF034FCE2
:1018B00003B0B0EE680ABDEC028BFBEE0E0ABDE889
:1018C000F04F022005F06EB800000000205C002000
:1018D000800F002000003443B42B0020E497020066
:1018E0008C480020300E00200000A0410000A040E5
:1018F000C4530020581C00202DE9F04F2DED028B21
:1019000083B0DFEDFE8ADFF8FCB3FD4F9BF81400D7
:1019100037F810009FEDFC8A002407F5967507F54F
:10192000A5684FF0010A07F5FA79A5F1C806002865
:101930001DD001284FD0F54F02287DD003287CD040
:10194000EF4904287AD08B46052878D0062877D02E
:10195000DFF8B0B3072874D0082873D0092872D0F4
:1019600003B0BDEC028BBDE8F04F1EF033BA1EF0A1
:1019700031FAE74864214161B7EE000A80ED060ABA
:1019800080F802A042F210710180B0EE481A88ED92
:10199000021A98ED000AD8ED010A8DED000ACDED8E
:1019A000010A8DED021A0121084607F093F89BF811
:1019B000140027F810A046F8204049F82040C8211C
:1019C00045F82010BBF81A0003B0BDEC028BBDE84F
:1019D000F04F17F099BB1EF0FDF99BF8141059F861
:1019E0002100072817D3032027F8110046F82140CB
:1019F00045F8214049F8214098ED000AD8ED010A48
:101A0000B0EE481A03B00121BDEC028B0846BDE8D8
:101A1000F04F07F05FB8062200211EF037FC80B2BD
:101A20009BF8141055F8212012B1521E45F82120C0
:101A300055F82110002907E03AE0AFE0DDE0F3E0DF
:101A4000B3E1DCE1FCE147E22DD1B24931F92020DC
:101A5000233A00EE102AB8EEC00A01EB8000B0F97C
:101A60000200233800EE900AF8EEE00AB0EE481AC1
:101A7000D8ED001A31EE800A8DED000AD8ED011A7A
:101A800071EEA00ACDED010A8DED021A0121084682
:101A900007F020F89BF81400022127F8101046F8F0
:101AA000204045F8204003B0BDEC028BBDE8F08F2C
:101AB0001EF090F99BF8140056F8201003291DD24F
:101AC000954897ED1D1AD0ED010A90ED000A22F01D
:101AD000ACFA10EE100A9149884207DC9BF814001A
:101AE00056F82010491C46F8201015E09BF8140009
:101AF00056F82010490846F820100DE0804921F8DA
:101B000010A046F820404FF4C87145F8201059F84D
:101B10002010491C49F820109BF8140059F8201097
:101B2000072918D3764A032122F8101046F82040DE
:101B300045F8204049F8204098ED000AD8ED010A08
:101B4000B0EE481A03B00121BDEC028B0846BDE897
:101B5000F04F06F0BFBF9BF80220012AA3D0002956
:101B6000A1D06F4AB2F85620012A9CD1644A0523BD
:101B700022F8103046F820404FF4FA6245F8202051
:101B8000ABF820106748C8214161B6EE000A80ED2D
:101B9000060A80F802A00A21018084E71EF01AF9E3
:101BA0009BF8140056F8201005291BD25A48D0ED96
:101BB000010A90ED000A22F029FA10EE100A5A49A3
:101BC000884207DC9BF8140056F82010491C46F8A0
:101BD000201068E79BF8140056F82010490846F8D2
:101BE000201060E7464931F81020521C21F81020DF
:101BF00046F8204045F8204055E74C4880F83040F2
:101C00004B4991ED260A80ED060A00200EF084FA79
:101C100003B0B0EE680ABDEC028BFBEE0E0ABDE825
:101C2000F04F022004F0BEBE01F08AFA3F4FB2EE40
:101C3000041AFAEE040A97ED040A1EF0EDFA87ED95
:101C4000040A97ED050AB2EE041AFAEE040A1EF031
:101C5000E3FA87ED050A87F83040354890ED260A0B
:101C600087ED060AB0EE680A0020F0EE400A04F0A4
:101C700099FE244F387D55F8201011B1491E45F8C2
:101C8000201055F820009FED2B8A30BB01200EF06C
:101C900043FADFF8A48098ED010AD8ED020A8DED31
:101CA000000ACDED010A8DED028A0121B0EE481A3D
:101CB000084606F00FFF387D3BF81010491C2BF842
:101CC000101046F8204045F8204098ED010A87EDB5
:101CD000100A98ED020A87ED110A387D56F82000A7
:101CE00003283AD20E48D0ED180A90ED170A22F0D8
:101CF0008DF910EE100A0C4988421FE00000000028
:101D0000205C0020800F0020000034438C4800201D
:101D1000B42B0020FC970200300E00200000204170
:101D2000305A0020D02B00200000A040C4530020D7
:101D3000581C00200000C842A857002006DC387D4F
:101D400056F82010491C46F82010ACE6387D56F8AD
:101D50002010490846F82010A5E601200EF0DCF915
:101D6000DFF8F48198ED010AD8ED020A8DED000A42
:101D7000CDED010A8DED028A0121B0EE481A084628
:101D800006F0A8FE387D3BF81010491C2BF8101007
:101D900046F8204045F8204098ED010A87ED100AEA
:101DA00098ED020A87ED110A7DE61EF013F86B48E4
:101DB000007D56F82010C82915D297ED1D0AB5EE02
:101DC000C00AF1EE10FA01DCB1EE400A10EE102A62
:101DD000634B9A4203DC491C46F8201063E649082D
:101DE00046F820105FE63BF81010491C2BF8101045
:101DF00046F820404FF4167145F8201053E61DF0C8
:101E0000E9FF9BF8140055F8201011B1491E45F860
:101E1000201055F82000002897D1BBF8180017F0C3
:101E200073F950499BF8140031F81020521C21F826
:101E3000102046F820404FF4C87145F8201032E6D3
:101E40001DF0C8FF9BF8140055F8201011B1491E71
:101E500045F8201055F820000028A5D18BF802A0E5
:101E600098ED000ADBED100A30EEC00ADFED3E0A05
:101E700030EE200ABDEEC00A10EE100AABF81C00CE
:101E800098ED010A9BED111A31EE400A30EE200A5E
:101E9000BDEEC00A10EE100AABF81E002E4890ED01
:101EA000010A8DED000AD0ED020ACDED010A8DED9B
:101EB000028AB0EE481A0121084606F00BFE2949B5
:101EC0009BF8140031F81020521C21F8102046F81D
:101ED000204045F82040E6E51DF07CFF9BF814000B
:101EE00056F82010C82915D297ED1D0AB5EEC00A84
:101EF000F1EE10FA01DCB1EE400A10EE103A184A89
:101F0000934203DC491C46F82010CCE5490846F80A
:101F10002010C8E5134921F810A046F8204045F8E4
:101F20002040BBF82010491C49F8201098ED000A09
:101F30008DED000AD8ED010ACDED010A8DED028A82
:101F4000B0EE481A03B00121BDEC028B0846BDE893
:101F5000F04F06F0BFBD0000A8570020800F002002
:101F600000002041205C002000000C421548164A69
:101F7000174903791548012B90ED000A12D0154836
:101F8000D0ED180AC1ED000A132001EB8003C3ED68
:101F9000090A401E80B20028F7D1C1ED090A82ED7E
:101FA0001B0A704781ED000A132001EB800383EDCB
:101FB000090A401E80B20028F7D181ED090A82ED9E
:101FC0001B0A7047140C00208C4800207C03002062
:101FD000F03F0020581D00202DE9F04704462DED6C
:101FE000028BD54D94ED050A85ED010A94ED040AA6
:101FF00085ED5F0AD14ED24896ED180AD0ED000A61
:1020000030EE600A85ED600ACE4896ED170AD0EDF5
:10201000000A30EE600A85ED020ADFEDCB8A05F595
:10202000BC70B0EE680A0EF05DFCB0EE680A28469F
:102030000EF058FC95ED0C0A85ED300A95ED6A0A14
:1020400085ED8E0A94F8303000274FF0010805F531
:102050003C709FEDBE8ABE4ABE499FEDBF1A062B5B
:1020600022D2DFE803F0032C75C2F5F494ED060AE2
:10207000B5EEC00AF1EE10FA1AD195EDBD0AB5EE33
:10208000C00AF1EE10FA03D196ED190A85EDBD0AEA
:1020900096ED190A85EDBE0AB0EE680A0EF0E4FF6F
:1020A00095EDC80A85EDEC0ABDEC028BBDE8F08722
:1020B00085EDBD8A94ED060A85EDEC0AF4E794F807
:1020C0003130012B15D1D4ED060AF5EEC00AF1EE40
:1020D00010FA01D270EE810A10EE903A934201DDBF
:1020E00070EEC10AC5EDBD0A84F83170E78584F849
:1020F000327094F83220C2B9D5EDBF0AF5EEC00AAD
:10210000F1EE10FA01DCF1EE600A10EE902A8A423C
:1021100003DAE18D491CE18502E0E18D4908E185A2
:10212000E18DC82901D384F8328096ED190A85ED36
:10213000BE0AB0EE680A0EF097FF95EDC80AB3EE3E
:10214000091AFBEE090A1EF067F885EDEC0AABE709
:1021500094F83130012B19D196ED190AD4ED060A05
:1021600070EE600AF5EEC00AF1EE10FA01D270EEE0
:10217000810A10EE903A934201DD70EEC10AC5ED7E
:10218000BD0A84F83170E78584F8327094F8322003
:10219000C2B9D5EDBF0AF5EEC00AF1EE10FA01DCC6
:1021A000F1EE600A10EE902A8A4203DAE18D491CB2
:1021B000E18502E0E18D4908E185E18DC82901D37F
:1021C00084F8328096ED190A85EDBE0AB0EE680AF1
:1021D0000EF04AFF95EDC80AB3EE091AFBEE090AA4
:1021E0001EF01AF885EDEC0A5EE794F83130012B09
:1021F00019D196ED190AD4ED060A70EE200AF5EE13
:10220000C00AF1EE10FA01D270EE810A10EE903A97
:10221000934201DD70EEC10AC5EDBD0A84F831704C
:10222000E78584F8327094F83220D2B9D5EDBF0A30
:10223000F5EEC00AF1EE10FA01DCF1EE600A10EEE4
:10224000902A8A4205DAE18D491CE18504E048E0E4
:102250001AE0E18D4908E185E18DC82901D384F8B0
:10226000328096ED190A85EDBE0AB0EE680A0EF0CE
:10227000FBFE95EDC80AB3EE091AFBEE090A1DF044
:10228000CBFF85EDEC0A0FE720F098FF814694F82C
:102290003100012812D194ED060AB3EE091AFBEEC3
:1022A000090AB1EE400A1DF0B7FF85EDEC0A84F88B
:1022B0003170E78584F83270C4F8349094F83200B5
:1022C00030B185EDEC8A96ED190A85EDBD0AEBE695
:1022D000606BA9EB0000A16B814285D884F8328045
:1022E000E2E620F06BFF814694F83100012810D11E
:1022F00094ED060AB3EE091AFBEE090A1DF08CFFF5
:1023000085EDEC0A84F83170E78584F83270C4F802
:10231000349094F8320030B185EDEC8A96ED190ACC
:1023200085EDBD0AC0E6606BA9EB0000A16B8142A0
:10233000A9D884F83280B7E68C440020481E0020DB
:10234000500000204C0000200AD7A33B00000000F2
:102350000000B443000040400000B44310B50348FF
:10236000FFF73AFEBDE8104005F060BFC4530020FF
:102370002DE9F04104462DED028B00272378AE4E67
:10238000AE4D10229FEDAE8AAE48DFF8BC8295EDCF
:10239000260A0188B8F80200D5ED240A95ED251A21
:1023A000212B7CD2DFE803F0111D3043506370769F
:1023B0007E848A909CA9AFB5C2CFD5E1E7F8FEF53F
:1023C000F4F4F4F4F47BF4F4F3000CF0CBFB86F8B3
:1023D000307095ED260A86ED060ABDEC028BBDE84D
:1023E000F08100F0ADFE86F8307095ED260A86ED9E
:1023F000060AB0EE480ABDEC028BF0EE400ABDE8DA
:10240000F041002004F0CEBA19F0EEF886F83070F2
:1024100095ED260A86ED060AB0EE480ABDEC028B61
:10242000F0EE400ABDE8F041002004F0BBBA17F01E
:10243000E5FBB0EE480ABDEC028BF0EE400ABDE8C9
:10244000F041002004F0AEBA04F0D2FC86F83070FF
:1024500095ED260A86ED060AB0EE480ABDEC028B21
:10246000F0EE400ABDE8F041002004F09BBA04F011
:102470003DFDB0EE480ABDEC028BF0EE400ABDE82F
:10248000F041002004F08EBABDEC028BBDE8F041B3
:102490001EF00ABEBDEC028BBDE8F04100E0B8E0E2
:1024A0001EF06CBEBDEC028BBDE8F0411EF0D2BE4A
:1024B000BDEC028BBDE8F0411EF086BFBDEC028B87
:1024C000BDE8F0411FF08EB800EE101AB8EE400AD9
:1024D00000F0C6F8012880D12078401C20707CE7ED
:1024E00028B90720A8F80200002116F00FFFBDEC64
:1024F000028BBDE8F041FEF7E1BEBDEC028BBDE80A
:10250000F04121F085BEBDEC028BBDE8F0411DF02D
:1025100061BC28B9A8F802200021104616F0F6FE8A
:10252000BDEC028BBDE8F04101F070BD28B9A8F800
:1025300002200021104616F0E9FEBDEC028BBDE83A
:10254000F04102F077BCBDEC028BBDE8F04102F037
:1025500065B900EE101AB8EE400A00F081F80128C3
:10256000BDD12078401C207037E7BDEC028BBDE860
:10257000F0410CF079BB9FED350A00F071F80128AD
:10258000ADD1207898F800100844207025E72CE0A1
:1025900018E00DE006E0FFE7BDEC028BBDE8F0417E
:1025A000FFF748B8BDEC028BBDE8F041FFF7A4B9D6
:1025B0002749012008702749642008802649912076
:1025C00008800AE7C6ED040A86ED051A86F8307021
:1025D00086ED060AB0EE480ABDEC028BF0EE400A2A
:1025E000BDE8F041002004F0DDB900200DF0D2FC80
:1025F00086F8307095ED260A86ED060AB0EE480A98
:10260000BDEC028B0220BDE8F041DFED140A04F0BE
:10261000C9B9C6ED040A86ED051A86F8307086ED54
:10262000060AB0EE480ABDEC028BF0EE400ABDE8A7
:10263000F041002004F0B6B9C4530020581C00201B
:1026400000000000220000207A0F00200000344328
:10265000820F00209C0F00209E0F0020000048C227
:1026600070B52DED028BB0EE408A1DF0B3FB264D08
:10267000244C687C34F8101029B1012921D00020A5
:10268000BDEC028B70BD2149002008802049214803
:1026900091ED010A80ED000AD1ED020AC0ED010AB8
:1026A0001D4991ED001A80ED021A31EE081A012140
:1026B000084606F00FFA697C012024F8110000207A
:1026C000DEE7104A643252F82010B1F5C87F17D205
:1026D000124B93ED1D0AB5EEC00AF1EE10FA01DCC3
:1026E000B1EE400A10EE103A0D4CA34203DC491C37
:1026F00042F8201002E0490842F820100020BFE70D
:102700000120BDE7205C0020800F00201C0300207A
:10271000A857002048610020F03F00208C4800208E
:102720000000204130B41C498888401C80B2888059
:10273000C8282ED300238B8018489FED191A0088D3
:1027400000EE100A0846B8EE400A0088C0EE010A02
:1027500091ED030AF4EEC00AF1EE10FA07DD10EE77
:10276000102A104CA24202DD401C088001E0400803
:10277000088008880A280CD30B800B4800880028A2
:1027800007D130BC0521B5EE000A4FF47A701DF078
:10279000F9BC30BC704700008C03002026000020EC
:1027A00000007A440000C0401403002010B5054822
:1027B00017F0BEFD0E21044804F0BBFDBDE810403B
:1027C00015F0ECBC050800F00050024010B50446BE
:1027D0002088002802D0401E208004E0217C0022B6
:1027E000E06804F0F6FD208810B9A07C01282DD106
:1027F0002089401C80B2208100EB800160888142EA
:1028000001D30021218100EE100AD4ED010A2089B4
:10281000B8EE400A00EB800060EE200A00EE100ADD
:10282000B8EE400AF4EEC00AF1EE10FA07DB207CA5
:10283000C2B2C1B2E068BDE8104004F0CABD217C5C
:10284000E068BDE81040002204F0C3BD10BD70B5C3
:1028500004AC70CC00EE901AB1EE041AF8EE600AE7
:10286000C0EE811AFCEEE10A10EE901A018042805F
:1028700080ED010A0381C4600582867470BD00008A
:1028800010B5002817D0012822D002287ED00328B6
:102890007DD1634C00220221204604F09AFD0022E3
:1028A0000421204604F095FD20460022BDE810409A
:1028B000082104F08EBD5B48FFF788FF59481430AB
:1028C000FFF784FF5748BDE810402830FFF77EBF70
:1028D00055480078B0B1012821D002282CD0032817
:1028E00037D0042842D005284DD04E48FFF76EFF60
:1028F0004C481430FFF76AFF4A48BDE810402830C2
:10290000FFF764BF47481430FFF760FF454804F005
:1029100063FD4448BDE81040283004F05DBD4148E7
:102920001430FFF753FF3F4804F056FD3D48BDE823
:102930001040283004F050BD3A481430FFF746FFED
:10294000384804F049FD3748BDE81040283004F00D
:1029500043BD34481430FFF739FF324804F03CFDE2
:102960003048BDE81040283004F036BD2D48143002
:10297000FFF72CFF2B4804F02FFD2A48BDE810403C
:10298000283004F029BD2748143001E00BE045E071
:10299000FFF71CFF234804F01FFD2248BDE810404C
:1029A000283004F019BD2148007880B101281BD0DF
:1029B000022826D01B48FFF709FF1A481430FFF7FA
:1029C00005FF1848BDE810402830FFF7FFBE154846
:1029D0001430FFF7FBFE134804F0FEFC1148BDE87D
:1029E0001040283004F0F8BC0E481430FFF7EEFE1B
:1029F0000C4804F0F1FC0B48BDE81040283004F00E
:102A0000EBBC08481430FFF7E1FE064804F0E4FC94
:102A10000448BDE81040283004F0DEBC10BD0000C2
:102A20000050024050180020090000200D00002036
:102A300070B504460025A078012803D1A570A580B3
:102A4000E5802572E0882188884202D10120207229
:102A500070BDA088401C80B2A0806169D4ED060AD8
:102A600000EE101AB8EE400A60EE200A00EE100ADE
:102A7000B8EE400AF4EEC00AF1EE10FA06DD217C51
:102A8000E068BDE87040002204F0A3BC884206D292
:102A9000217CE068BDE870400A4604F09ABC217CC5
:102AA000E0680A4604F095FCA580E088401CE080C0
:102AB00070BD000010B50548F2EE040A9FED040A4F
:102AC00021F09AFDBDE8104021F0D8BC8C18002000
:102AD0000000484210B5074B445C1C700844417824
:102AE000597081789970C078D87093ED000A82EDA2
:102AF000000A10BDFC07002030B500239FED0B0A33
:102B000000EB830282ED000A002203EB430401EB99
:102B1000C40404EB820585ED000A521C12B2062A99
:102B2000F7DB5B1C1BB2062BEADB30BD00000000AC
:102B3000F0B586B0B7EE001A0024F0EE001AB8EE39
:102B4000002A6D46E61C02EB8607D7ED000A03EB70
:102B5000840797ED000A02EB8407D7ED002A30EED8
:102B6000620A60EEA02A62EE802A02EEC01A60EECF
:102B7000A12A05EB840762EEA02A62EE802AC7ED47
:102B8000002A60EE820A05EB860660EE800A20EEDF
:102B9000800A86ED000A641C24B2032CD2DB0023D9
:102BA00000EB830205EB8304D2ED000A94ED000AEA
:102BB00040EE010AC2ED000A002203EB430401EBE0
:102BC000C40606EB820405EB8207D4ED000AD7EDBC
:102BD000001A40EE210AC4ED000A521C12B2062A65
:102BE000EFDB5B1C1BB2062BDADB06B0F0BD00008E
:102BF0002DE9F04381462DED028BB9B00F46154605
:102C000000269FED818ADFED818A00203690379083
:102C10003890182130A8FDF7B0FC18212AA8FDF73C
:102C2000ACFC182124A8FDF7A8FC90216846FDF70C
:102C3000A4FC4FF001089FED760A8DED320A8DED70
:102C4000310A8DED300A9FED730A8DED350A8DED59
:102C5000340A8DED330A68E0761C36B2694624A842
:102C6000FFF74AFF002404EB440009EB800393EDD7
:102C7000000A8DED360A93ED010A8DED370A93EDCA
:102C8000020A8DED380A36AB30AA694624A8FFF750
:102C90004FFF641C24B2062CE5DB2AAA694624A84F
:102CA0001EF09CFD9DED2D0A60EE000A9DED330A9D
:102CB00020EE000A80EE801A9DED2A0A60EE000ADE
:102CC0009DED2B0A40EE000A9DED2C0A40EE000A15
:102CD0009DED2E0A31EE201A60EE000A9DED340AB9
:102CE00020EE000AC0EE801A9DED2F0A71EE210A37
:102CF00020EE001A9DED350A20EE000AC1EE001A02
:102D000070EEA18A002330A92AAA01EB830002EB0E
:102D1000830490ED000AD4ED000A30EE600A80EDE5
:102D2000000A5B1C1BB2062BEFDB142E04DAF4EE58
:102D3000C88AF1EE10FA8FDC9DED330ADFED360A1A
:102D400020EE200A85ED000A9DED341A21EE201AAE
:102D500085ED011A9DED351A61EE200AC5ED020AD6
:102D6000DDED300A20EE801A87ED001A9DED310A64
:102D7000D5ED010A60EE200AC7ED010A9DED320A89
:102D8000D5ED021A20EE210A87ED020AD5ED001AD0
:102D9000B7EE002A214971EEC21AF0EEE11A11EEE7
:102DA000900A884213DCD5ED011A71EEC21AF0EEDA
:102DB000E11A11EE900A884209DCD5ED021A71EE93
:102DC000C21AF0EEE11A11EE900A884201DD4FF0CE
:102DD0000008B0EEC11A11EE100A114988420BDC4E
:102DE000F0EEE00A10EE900A884205DCB0EEC00A70
:102DF00010EE100A884201DD4FF0000839B040465D
:102E0000BDEC028BBDE8F0835F7089300000C842E2
:102E1000000000007FD6D03D0AE81C41CDCC4C3EDE
:102E20000000A04010B506480088012807D0FEF732
:102E300093F808F0C3FCBDE8104002F04DBD10BD92
:102E40001403002010B5084CE07A401CC0B2E072B8
:102E5000042803D300F0A4FF0020E07218F038FC2F
:102E6000BDE8104000F010BE680E002000200849A8
:102E70000978012900D1012006498A78012A01D167
:102E800040F002000979012901D140F004007047A7
:102E9000E402002008000020F0B585B01421684647
:102EA000FDF76BFB434C0020207060700021012077
:102EB000414B6E460127C0EBC00203EBC202D5892D
:102EC00065B125786D1C257092ED080A0A4606EB5F
:102ED0008202491CC9B282ED000A6770401CC0B270
:102EE0000528E8D3354890ED040AB5EEC00AF1EEA6
:102EF00010FA0CDD10EE100A314A904207DA207801
:102F0000401C207006EB810080ED000A677020787D
:102F1000F8B1012822D0022825D003282CD004287B
:102F200037D0052813D1DDED010A9DED000A1AF016
:102F30003DFDDDED020A1AF039FDDDED030A1AF060
:102F400035FDDDED040A1AF031FD84ED040A05B00B
:102F5000F0BD9FED1C0A84ED040AF8E79DED000A20
:102F600084ED040AF3E7DDED010A9DED000A1AF095
:102F70001DFD84ED040AEAE7DDED010A9DED000A7E
:102F80001AF014FDDDED020A1AF010FD84ED040ABA
:102F9000DDE7DDED010A9DED000A1AF007FDDDED2C
:102FA000020A1AF003FDDDED030A1AF0FFFC84EDBE
:102FB000040ACCE7600B002074290020E02C0020DC
:102FC000000048430000484310B5014600202A4B4A
:102FD00001EBC10113F8212003EB81014B78CC7880
:102FE0001A408B7823401A400B791A404B791A40CB
:102FF0008B791A40CB791A400B7A1A404B7A1A40D7
:103000008B7A1A40CB7A1A400B7B1A404B7B1A40C2
:103010008B7B1A40CB7B1A400B7C1A404B7C1A40AE
:103020008B7C1A40CB7C1A400B7D1A404B7D1A409A
:103030008B7D1A40CB7D1A400B7E1A404B7E1A4086
:103040008B7E1A40CB7E1A400B7F1A404B7F1A4072
:103050008B7F1A40CB7F1A4091F820301A4091F8AC
:1030600021301A4091F8223091F823101A400A4278
:1030700000D0012010BD00005017002070B52DEDCC
:10308000048BB0EE409A0024461C4FE004EB440051
:10309000450000EE105ADFED289AB8EE400A20EE07
:1030A000290A10EE100A23F055FD41EC100B1AF01E
:1030B0000BFBB0EE408AF0EE608A19EE100A23F0A6
:1030C00049FD53EC182B23F04FFA41EC180B19EE85
:1030D000100A23F03FFD53EC182B23F051FC22F093
:1030E000FDFE164941F8240000EE105AB8EE400AE1
:1030F00020EE290A10EE100A23F02CFD41EC100BF3
:103100001BF01EFDB0EE408AF0EE608A19EE100A48
:1031100023F020FD53EC182B23F026FA22F0DEFEDC
:103120000649F43141F82400641CA4B2B442ADD382
:10313000BDEC048B70BD000035FA8E3C546100205C
:1031400070B52DED028B334E308B401C80B2308336
:10315000142808D3002030832F4D012195F85920E1
:10316000012A0DD0F170F07801283BD0D6ED110A7C
:1031700096ED100ABDEC028BBDE870400DF086B9EB
:10318000B170F07054356871254C9FED248A84ED40
:10319000208A95ED020A84ED210ADFED228AA978C2
:1031A00004F17C00B0EE680A0DF064FE84ED4F8AF5
:1031B000D5ED030AC4ED500AA978B0EE680A04F50B
:1031C0009C700DF057FE94ED2B0A12484030B1EE82
:1031D000400A80ED000A94ED5A0AB1EE400A80EDF3
:1031E000010AC0E7B078012808D002280FD1BDEC51
:1031F000028B0020BDE870400CF08EBF0220B07042
:103200000120BDEC028BBDE870400CF085BFBDEC29
:10321000028B70BD000E0020305A0020000000001C
:103220008C500020CDCCCC3D10B51F4A1F4B002444
:103230001078FF282AD0D088401C80B2D08028285F
:1032400025D3D4801A4890ED090AD0ED060AB4EED1
:10325000600AF1EE10FA1BD190ED0A0AD0ED070AD0
:10326000B4EE600AF1EE10FA12D190ED0B0AD0ED37
:10327000080AB4EE600AF1EE10FA09D15188491C2F
:1032800089B251800A2909D99C7007E09C7010BD51
:1032900051884908518009B901219970D0E9072363
:1032A000816924300EC010BD7C0B0020140C00205E
:1032B000581D002010B505F0B7FC0A2000F0A4FE50
:1032C0000D21084616F096FEFF2815D106210D2087
:1032D00016F090FEFF280FD00EF08EFC074901205B
:1032E000087007498870BDE810400648F3EE020AEE
:1032F0009FED050A21F080B910BD00007C0B002075
:10330000140C002068190020000020422DE9FC4721
:103310000446DFF8D48098F80000FF280CD0B8F8F5
:103320000410491C89B2A8F80410012959D00429B5
:1033300057D3012803D04FE00020BDE8FC870021CF
:103340000D2016F057FE05468DF8000001210D20D6
:1033500016F050FE8DF80100064602210D2016F0F1
:1033600049FE07468DF8020003210D2016F042FEAB
:103370008DF80300824604210D2016F03BFE8DF8E7
:103380000400814605210D2016F034FE01468DF81B
:10339000050045EA062000B200EE100AF8EEC00A69
:1033A0009FED120A80EE801A84ED001A47EA0A2087
:1033B00000B200EE900AF8EEE00A80EE801A84ED8A
:1033C000011A49EA012000B200EE900AF8EEE00A84
:1033D00080EE801A84ED021A0020A8F80400012073
:1033E000ABE70020A9E700007C0B002000803B45F4
:1033F00010B52DED028B474C94ED130A94ED141A81
:10340000D4ED151AD4ED160A21EE213A20EE204A09
:1034100061EE204A20EE212A61EEA02A60EE013AF8
:1034200020EE005A61EE015A21EEA10A60EEA00AD8
:1034300035EE251A31EE401A31EE601A80ED001A91
:1034400073EE441AB0EE001A61EE811AC0ED011A53
:1034500074EE821A61EE811AC0ED021A73EE041A3C
:1034600061EE811AC0ED031A75EE651A31EE803AED
:1034700033EE603A80ED043A32EEE33A23EE013A5D
:1034800080ED053A34EEC22A22EE012A80ED062AAA
:1034900032EEA32A22EE011A80ED071A31EEC00A9D
:1034A00030EE200A80ED080A94ED170A9FED1A8A83
:1034B00020EE080A03F0F8F884ED0A0A94ED170AE2
:1034C00020EE080A02F034FF84ED0D0A94ED180A8C
:1034D00020EE080A03F0E8F884ED090A94ED180AD2
:1034E00020EE080A02F024FF84ED0C0A94ED190A7C
:1034F00020EE080A03F0D8F884ED0B0A94ED190ABF
:1035000020EE080A02F014FF84ED0E0ABDEC028BD7
:1035100010BD0000481E002035FA8E3C2DE9F8430E
:1035200064201CF0CBFE4FF4A176AA2020F0A0FF6F
:10353000AB2020F09DFF962020F09AFF262020F05F
:1035400097FFBC2020F094FF502020F091FF5C20DA
:1035500020F08EFF0024284D4FF6FF702880E846AB
:10356000264F13E02888401E81B2298011B900201F
:10357000BDE8F883384618F0E5FA0028F2D038465E
:1035800018F0D6FA2146641C08F80100032CF1DB80
:10359000002529E0BB2020F06BFFDC2020F068FF35
:1035A000DFF85C9019F8050020F062FF09EB0504D4
:1035B000607820F05DFF19F805006178484080F0E0
:1035C000DC0020F055FF0024384618F0BBFA002834
:1035D000FAD0384618F0ACFA2146641C08F801000D
:1035E000032CF1DBAD1CADB2B542D3D3DD2020F00E
:1035F0003FFF0120BCE70000F802002000E000408F
:103600002882020010B50446154816F091FE1548B0
:1036100016F08EFE012003F045FE40F2014003F05B
:1036200041FE03214FF0402003F0C3FE16F078FD69
:1036300022460D4C01466023204618F08BFA2046A6
:1036400018F0C5FA1021204618F0C8FA074920469C
:1036500018F0C8FA4021BDE81040152006F020B946
:10366000000800F0001800F000C0004079B8010028
:1036700010B50446154816F05BFE154816F058FEC6
:103680004FF0011003F00EFE124803F00BFE032171
:10369000114803F08EFE16F043FD22460F4C014602
:1036A0006023204618F056FA204618F090FA1021B0
:1036B000204618F093FA0A49204618F093FA602140
:1036C000BDE81040162006F0EBB80000010800F03D
:1036D000011800F0010401000050004000D000403B
:1036E000ADB8010010B504461A4816F021FE1A487C
:1036F00016F01EFE1A4819490160011D0A6842F0C1
:1037000080030B6000210160164803F0CBFD1648D2
:1037100003F0C8FDC021154803F04BFE16F000FD74
:103720002246134C01466023204618F013FA204627
:1037300018F04DFA1021204618F050FA0CF070FDE8
:103740000C49204618F04EFA8021BDE81040312087
:1037500006F0A6B8030800F0021800F04B434F4CE7
:103760002075004001180300011C03000070004098
:1037700000E00040E1B8010010B5154816F0D8FD92
:10378000144816F0D5FD144803F08CFD134803F0DF
:1037900089FDC021124803F00CFE16F0C1FC114C4B
:1037A000014660234FF47A32204618F0D3F92046C0
:1037B00018F00DFA1021204618F010FA0A49204698
:1037C00018F010FA4021BDE810404B2006F068B810
:1037D000020800F0031800F001180200011C0200AA
:1037E0000060004000F0004055B9010010B50446EB
:1037F0001A4801801A4816F09BFD1A4816F098FDE9
:103800001A4819490160011D0A6842F080020A60E5
:1038100000210160164803F045FD164803F042FD03
:103820003021154803F0C5FD16F07AFC2246134CF2
:1038300001466023204618F08DF9204618F0C7F99C
:103840001021204618F0CAF90D49204618F0CAF98F
:103850002021BDE810404E2006F022B88803002049
:10386000030800F0061800F04B434F4C2075004051
:10387000011003000114030000700040002001400B
:10388000BDB9010010B50446164816F051FD1648A2
:1038900016F04EFD154803F005FD154803F002FD36
:1038A0000321144803F085FD16F03AFC2246124C21
:1038B00001466023204618F04DF9104815F0F5FC3C
:1038C000204618F084F91021204618F087F90C4999
:1038D000204618F087F96021BDE810404F2005F020
:1038E000DFBF0000040800F0071800F0010004002A
:1038F000010404000040024000300140C0200020CC
:1039000065BA010070B50546154816F011FD154859
:1039100016F00EFD144803F0C5FC144803F0C2FC79
:103920003021134803F045FD124C0521204618F0C4
:103930000EF9114A2946002018F068F9204618F0BF
:1039400046F91021204618F049F90C49204618F094
:1039500049F9BDE8704040214C2005F0A1BF0000AE
:10396000020800F0041800F0011002000114020027
:1039700000600040000001400024F40089B901000B
:1039800070B504462DED028BB0EE408A94ED032A0B
:1039900094ED001A94ED040AD4ED010AB5EEC02AA4
:1039A000F1EE10FA2DD1B5EEC00AF1EE10FA28D1E1
:1039B000D4ED051AF5EEC01AF1EE10FA21D1B5EEEC
:1039C000C01AF1EE10FA1CD1F5EEC00AF1EE10FAB1
:1039D00017D1D4ED021AF5EEC01AF1EE10FA10D19B
:1039E00084ED038A84ED048A84ED058A84ED008ADF
:1039F00084ED018A84ED028AB0EE480ABDEC028BA8
:103A000070BD84ED028AD1ED041AD1ED052A61EE74
:103A1000881A42EEA01AD1ED062A42EE811A91EDE3
:103A2000021A41EE401A91ED031A41EE421AC4ED1A
:103A3000051AC4ED000A84ED018A84ED030AC4ED81
:103A4000041A002504EB8506F06818F028FE01280A
:103A50000BD0306818F023FE012806D06D1CADB2E3
:103A6000032DEFD394ED050AC8E784ED038A84EDB6
:103A7000048A84ED058A84ED008A84ED018A84ED50
:103A8000028AB0EE480AB9E7FEB520F0A1F817F0B7
:103A9000A1FBBB49BB4C4FF47A700A88012A38D08D
:103AA000A083E0832084608417F0E4F80CF070FBBE
:103AB000B4F91C20A284E08BE084208C2085608CEB
:103AC000608540F698052946002018F009FCA0837F
:103AD000B4F91E202946002018F002FCE083B4F956
:103AE00020202946002018F0FBFB2084B4F9222076
:103AF0002946002018F0F4FB608483B2208C82B247
:103B0000E08B81B2A08B03B080B2BDE8F0400DF035
:103B10002FBE9D4A1278012A50D021789B4840F64A
:103B2000C41540F24C4602297ED0E18940F21A4287
:103B300091427AD3228A90ED990A00EE902AF8EE0B
:103B4000600A30EEC01AD0ED3B0A71EE201A90EDFB
:103B5000F71A71EEC11AFDEEE11A11EE900AA08378
:103B600001EE902AF8EE611A70EE211A71EEE01A59
:103B700071EEC11AFDEEE11A11EE900AE08301EE3A
:103B8000902AF8EE611A70EE211A71EEA01A71EE09
:103B9000811AFDEEE11A11EE900A208401EE902ABE
:103BA000F8EE611A31EEC00A30EE600A30EE010A1A
:103BB000BDEEC00A10EE100A6084C2E0B4F9242001
:103BC0006425002682420DDCB4F92620824209DCFD
:103BD000B4F92820824205DCB4F92A20824201DCB3
:103BE000A58211E06A48007870B90E800820CDE9FE
:103BF0000106684900910023B6EE000AC82240F68B
:103C0000B8316548FEF723FE608A401C80B26082AE
:103C1000042804D3A08A08B1401EA0826682A08A2C
:103C20006421C0F1640001E01AE083E0484390FBA6
:103C3000F5F101F57A71A18390FBF5F101F57A7147
:103C4000E18390FBF5F101F57A71218490FBF5F0A9
:103C500000F57A70608417F00DF80CF099FA27E7F8
:103C60004E490978012921D0228AA283E283228445
:103C70006284B4F91C202946304618F031FBA08339
:103C8000B4F91E202946304618F02AFBE083B4F927
:103C900020202946304618F023FB2084B4F9222046
:103CA0002946304618F01CFB608401E7228A90ED1B
:103CB000990A00EE902AF8EE600A30EEC01AD0EDB4
:103CC0003B0A71EE201A90EDF71A71EEC11AFDEE63
:103CD000E11A11EE900AA08301EE902AF8EE611A23
:103CE00070EE211A71EEE01A71EEC11AFDEEE11AC2
:103CF00011EE900AE08301EE902AF8EE611A70EE60
:103D0000211A71EEA01A71EE811AFDEEE11A11EE80
:103D1000900A208401EE902AF8EE611A31EEC00A72
:103D200030EE600A30EE010ABDEEC00A10EE100A55
:103D300060849EE7208AA083E0832084608416F05C
:103D400099FFB4F91C202946304618F0C9FAA0831F
:103D5000B4F91E202946304618F0C2FAE083B4F9BF
:103D600020202946304618F0BBFA2084B4F92220DE
:103D70002946304618F0B4FA608417F0EDFA97E659
:103D800014030020680E0020690D00208C440020E0
:103D9000680D002000500240781800200D0300201C
:103DA0002DE9F05F2DED028B8B4D28786870A87897
:103DB000E8706879A871894C01264FF00209B4F8BF
:103DC0005200B4F85610014485480289914201D34B
:103DD0002E7001E085F80090B4F86010B4F8662009
:103DE0004089891A7F4F4FF00008814203DC2E7111
:103DF00087F83D6007E00AF0A1FE1DF083FC85F81E
:103E0000048087F83D8034F8A60F14F0EFFB0746D6
:103E1000608814F0EBFB8246734991F8470081F803
:103E20004800724800789FED728A724C01280BD0CE
:103E3000022809D0032851D004284FD0AE706E4F0D
:103E40003888012869D070E0DFF898B10BF1400B99
:103E500087B1012F1CD0EE711FF0B0F9CBF8040030
:103E600084EDD78A84ED798A85F80980022F1ED0E7
:103E700007B320E0EE711FF0A1F9CBF8040084ED48
:103E8000D78A84ED798A01F009FE85F80980EDE78B
:103E90001FF094F9CBF80000DBF80410401ACBF8BF
:103EA0000800B0F57A7FE1D385F80790DEE785F862
:103EB000059000E06E71E8792872BAF1000F06D023
:103EC000BAF1020F07D0AE700CF062F9B7E7AE702E
:103ED0000CF05EF9B3E785F80290B0E737B1012F37
:103EE00016D0022FABD185F80590A8E7BAF1000FE4
:103EF00007D0BAF1020F08D0AE700CF049F96E711C
:103F00009DE7AE700CF044F9F9E785F80290F6E70A
:103F100081F84760AE706E7191E717F00DF937497F
:103F2000087002280DD016F0A5FE6879A979344FE3
:103F300088420BD097ED000A84ED1B0A012803D0BC
:103F400004E0A7F80080F0E71EF078FE2878697892
:103F5000884205D0022800D1AE72012800D1AE728D
:103F6000A978EA78914201D085F80A90A97A0129C6
:103F700002D002290CD00DE0022806D12148008889
:103F8000A88197ED000A84ED1B0A85F80A8001E0FC
:103F900085F80A80E879022810D1687A00280DD1C6
:103FA00003F03EFC70B197ED020A84EDD70A97ED5D
:103FB000010A84ED790A01F071FD6E72BDEC028B8D
:103FC000BDE8F09F84EDD78A84ED798A01F066FD23
:103FD00085F80980F2E70000680E0020581C0020D8
:103FE000FC1A0020C453002068270020990E0020EE
:103FF000000000008C4800201C030020CA0D002097
:10400000F03F0020100300201CF048B92DE9F04FCC
:104010002DED048B83B0DFEDFE8ADFF8FCA3DFF823
:10402000F4B39AF80E003BF810009FEDFC8A0BF5F4
:10403000A5680024A8F57F76A6F1C805002832D02F
:10404000DFF8DC9301285FD09FEDF69A02287CD040
:10405000F54F03287AD0DFF8D4A3DFF8D4B3F6EE17
:10406000009A042873D0052872D0062871D007283A
:1040700070D008286FD009286ED00A286DD00B2880
:104080006CD00C286BD0DFF88C930D2868D0E24FF1
:104090000E2866D00F2865D003B0BDEC048BBDE8B8
:1040A000F04F1BF097BE1BF095FE1CF00BF9B0EE25
:1040B000481A88ED021A98ED000AD8ED010A8DED34
:1040C000000ACDED010A8DED021A0121084604F027
:1040D00001FD9AF80E0001212BF8101045F8204040
:1040E0004FF47A7246F82020D24881704CF2503159
:1040F0000180C82141619FEDD00A80ED060A03B01E
:10410000BDEC048BBDE8F08F1BF064FE9AF80E0046
:1041100056F8201011B1491E46F8201056F820001C
:104120000028ECD199ED000AD9ED010A60EE200AD1
:1041300099ED021A60EE011AB0EE481A98ED000AE5
:1041400030EE200A8DED000A0DE024E06FE099E0EA
:10415000D3E0FEE040E1A8E1F1E11BE255E280E2BC
:10416000C0E2FBE232E3D8ED010A70EEA10ACDED28
:10417000010A8DED021A0121084604F0ABFC9AF801
:104180000E003BF81010491C2BF8101045F8204089
:1041900046F82040B3E71BF01DFE9AF80E0055F8D4
:1041A000200005281BD2A548D0ED010A90ED000A99
:1041B0001FF02CFF10EE100AA149884207DC9AF884
:1041C0000E0055F82010491C45F8201097E79AF882
:1041D0000E0055F82010490845F820108FE799ED9A
:1041E000000AD9ED010A20EE201AD9ED020A60EE8C
:1041F000200A98ED000A30EE010A8DED000A98EDD4
:10420000011A71EE200ACDED010A8DED029A01210D
:10421000B0EE491A084604F05DFC9AF80E003BF82F
:104220001010491C2BF8101045F8204067E71BF0D0
:10423000D1FD9AF80E0055F82010B1F5C87F15D2BF
:1042400097ED1D0AB5EEC00AF1EE10FA01DCB1EEF1
:10425000400A10EE102A7B4B9A4203DC491C45F8B9
:1042600020104CE7490845F8201048E73BF81010AB
:10427000491C2BF8101045F820404FF4966146F881
:1042800020103CE7FEF75CFF8AF830409BED260AE1
:104290008AED060AB0EE680A0020F0EE400A02F04D
:1042A00081FB5D4FB97B56F8210030B1401E46F8C6
:1042B00021004FF4FA6014F00FFFB87B56F820008D
:1042C00000288BD140F2DC5014F006FF5149B87B36
:1042D00031F81020521C21F8102045F820404FF4EE
:1042E0007A7146F820105848C8214161C0ED069AFD
:1042F000012181700421018001E7FEF721FF8AF886
:1043000030409BED260A8AED060AB0EE680A0020CE
:10431000F0EE400A02F046FB3F4FB87B56F8201003
:1043200011B1491E46F8201056F82000002898D1F7
:1043300001200BF0F1FE3749B87B31F81020521CF8
:1043400021F8102045F8204040F2C44146F82010E2
:10435000D5E61BF03FFD304FB97B56F8210030B158
:10436000401E46F821004FF47A7014F0B5FEB87B79
:1043700056F82000002884D140F2DC5014F0ACFE46
:1043800099ED000AD9ED010A60EE200A99ED021AB2
:1043900060EE011AB0EE481A98ED000A30EE200ADD
:1043A0008DED000AD8ED010A70EEA10ACDED010AEB
:1043B0008DED021A0121084604F08CFB1549B87BEB
:1043C00031F81020521C21F8102045F820404FF4FD
:1043D0007A7146F8201092E61BF0FCFCDFF838A05A
:1043E0009AF80E1055F82100C82833D297ED1D0A0F
:1043F000B5EEC00AF1EE10FA01DCB1EE400A10EEA3
:10440000102A104B9A4221DC401C45F8210076E628
:1044100000000000205C0020800F002000001643F8
:10442000000800200000A0428C480020C453002057
:10443000581C0020B42B002048E17A3F300E0020A9
:104440000000A04000002041D02B0020400845F88B
:10445000210054E699ED000AD9ED030A60EE201A16
:10446000D9ED040A60EE200AB0EE481A98ED000A71
:1044700030EE210A8DED000AD8ED011A71EEA00A86
:10448000CDED010A8DED021A0121084604F022FB50
:10449000D9499AF80E0031F81020521C21F810204A
:1044A00045F8204046F8204029E61BF093FCD34E07
:1044B000B07B55F82000052819D2D148D0ED010A6B
:1044C00090ED000A1FF0A2FD10EE100ACD498842BF
:1044D00006DCB07B55F82010491C45F820100EE68C
:1044E000B07B55F82010490845F8201007E699EDF3
:1044F000000AD9ED030A20EE201AD9ED040A60EE75
:10450000200A98ED000A30EE010A8DED000A98EDC0
:10451000011A71EE200ACDED010A8DED029A0121FA
:10452000B0EE491A084604F0D5FAB349B07B31F829
:104530001020521C21F8102045F82040DFE51BF028
:1045400049FCAE48807B55F82010C82915D297ED5C
:104550001D0AB5EEC00AF1EE10FA01DCB1EE400A18
:1045600010EE103AA84A934203DC491C45F820108B
:10457000C5E5490845F82010C1E59F4A32F81010FA
:10458000491C22F8101045F820404FF4966146F877
:104590002010B4E5FEF7D4FD8AF830409BED260AE2
:1045A0008AED060AB0EE680A0020F0EE400A02F03A
:1045B000F9F9924FB97B56F8210030B1401E46F808
:1045C00021004FF4FA6014F087FDB87B56F8200004
:1045D000002884D140F2DC5014F07EFD8649B87B7F
:1045E00031F81020521C21F8102045F820404FF4DB
:1045F0007A7146F820108548C8214161C0ED069ABD
:10460000012181700421018079E5FEF799FD8AF886
:1046100030409BED260A8AED060AB0EE680A0020BB
:10462000F0EE400A02F0BEF9744FB87B56F8201045
:1046300011B1491E46F8201056F82000002897D1E5
:1046400001200BF069FD6C49B87B31F81020521C39
:1046500021F8102045F8204040F2C44146F82010CF
:104660004DE51BF0B7FB654FB97B56F8210030B123
:10467000401E46F821004FF47A7014F02DFDB87BEF
:1046800056F82000002884D140F2DC5014F024FDBC
:1046900099ED000AD9ED030A60EE201AD9ED040A5B
:1046A00060EE200AB0EE481A98ED000A30EE210ABA
:1046B0008DED000AD8ED011A71EEA00ACDED010AC8
:1046C0008DED021A0121084604F004FA4A49B87B2C
:1046D00031F81020521C21F8102045F8204046F8EF
:1046E00020400CE51BF076FBDFF810A19AF80E10C5
:1046F00055F82100C82815D297ED1D0AB5EEC00A5D
:10470000F1EE10FA01DCB1EE400A10EE102A3E4B39
:104710009A4203DC401C45F82100F0E4400845F8CB
:104720002100ECE498ED000A8DED000AD8ED010AB5
:10473000CDED010A8DED028AB0EE481A012108463E
:1047400004F0C8F99AF80E0039F81010491C29F83D
:10475000101045F8204046F82040D0E41BF03AFB0A
:10476000B87B55F82010052919D22548D0ED010A4B
:1047700090ED000A1FF04AFC10EE100A2149884211
:1047800006DCB87B55F82010491C45F82010B6E42B
:10479000B87B55F82010490845F82010AFE439F8E7
:1047A0001010491C29F8101045F8204046F8204008
:1047B0001749042008701748C0ED018AC0ED028A2D
:1047C0001548C0ED008AC0ED018A98E48AF83040AF
:1047D0009BED260A8AED060A00200BF09DFC03B033
:1047E000B0EE680ABDEC048BFBEE0E0A0220BDE8B9
:1047F000F04F02F0D7B80000205C0020800F0020AE
:10480000300E00200000A04000002041D02B0020EE
:10481000840B0020A8570020280E00202DE9F04F1F
:104820002DED048B83B09FEDF98AFA4FDFF8E0930A
:104830000024387C07F1480A07F1500B39F81000C2
:10484000DFEDF58A09F5A5664FF00108A6F2C4452B
:10485000002829D001287DD0F04FDFF8C49302282A
:1048600079D0DFF8ACB3DFF8ACA3032874D052469C
:10487000EC4992ED0F0A04286FD005286ED0062867
:104880006DD007286CD008286BD009286AD00A2878
:1048900069D00B2868D00C2867D003B0BDEC048B1E
:1048A000BDE8F04F1BF096BA1BF00CFDDE4890ED12
:1048B000090A87ED0D0A90ED0A0A87ED0E0A90EDC0
:1048C0000B0A87ED0F0A9FEDD99A20EE090A1AF01C
:1048D0009BF9F0EE400A97ED0D0ADFEDD59ACD4831
:1048E00000EEA90A583080ED000A97ED0F0A20EE7D
:1048F000090A18F04DFFF0EE400A97ED0E0AC54880
:1049000000EEE90A603080ED000A97ED0F0A20EE14
:10491000090A1AF079F9D7ED0D0ABE4840EE690A86
:104920005830C0ED010A97ED0F0A20EE090A18F081
:104930002FFFF0EE400A97ED0E0AB64800EEA90AE6
:10494000603080ED010ABB499FEDBB0AF86B8842DD
:1049500017DC0BE042E073E0B9E0E2E0F9E013E1DC
:1049600039E19DE1C6E1DDE10DE243E28AED008A35
:10497000DFEDB20ACBED000A8AED010ACBED010AA8
:1049800009E08AED008ADFEDAE0ACBED000A8AED80
:10499000010ACBED010A1BF01DFAB0EE681A86ED94
:1049A000021A96ED000AD6ED010A8DED000ACDED52
:1049B000010A8DED021A0121084604F08BF8387CBB
:1049C00029F8108045F820409E494FF4C87241F8FC
:1049D000202003B0BDEC048BBDE8F08F1BF0FAF98A
:1049E000DFF86082387C58F8201011B1491E48F871
:1049F000201058F820000028EBD19AED000ADBEDDA
:104A0000000AB0EE681AD6ED001A31EE800A8DED7C
:104A1000000AD6ED011A71EEA00ACDED010A8DED66
:104A2000021A0121084604F055F8387C39F81010B4
:104A3000491C29F8101045F8204048F82040C8E7E4
:104A40001BF0C8F9DFF8CC8198F8100055F8200069
:104A5000052819D2D7ED010A97ED000A1FF0D6FA02
:104A600010EE100A484507DC98F8100055F82010A1
:104A7000491C45F82010ACE798F8100055F82010B4
:104A8000490845F82010A4E79AED010ADBED010A78
:104A9000B0EE681AD6ED001A31EE800A8DED000AEC
:104AA000D6ED011A71EEA00ACDED010A8DED021AC4
:104AB0000121084604F00EF8554998F8100031F825
:104AC0001020521C21F8102045F8204081E71BF0EF
:104AD00081F99AF8100055F82010052919D2D7ED60
:104AE000010A97ED000A1FF091FA10EE100A4845EE
:104AF00007DC9AF8100055F82010491C45F82010E2
:104B000067E79AF8100055F82010490845F820107A
:104B10005FE73BF81010491C2BF8101045F82040B7
:104B200057E781F8308081F8318081ED060A002056
:104B30000BF0F2FAB0EE480A0020F0EE400A01F065
:104B400031FF9AF810003BF81010491C2BF8101098
:104B50003FE70C4681F8308084ED060A00200BF018
:104B6000DBFAB0EE480A0020F0EE400A01F01AFF2E
:104B700094F83200012886D19AF810003BF8101002
:104B8000491C2BF8101024E71BF024F92148583059
:104B900090ED000A0830D0ED000AB0EE681AD6EDAC
:104BA000001A31EE800A8DED000AD6ED011A71EE81
:104BB000A00ACDED010A8DED021A0121084603F08D
:104BC00089FF9AF810003BF81010491C2BF81010C0
:104BD00045F82040FDE61BF0FDF89AF8100055F866
:104BE0002000052838D2D7ED010A97ED000A1FF002
:104BF0000DFA10EE100A484526DC9AF8100055F818
:104C00002010491C45F82010E3E6000000000000D9
:104C1000205C0020800F002000001643300E002092
:104C20000000A040C45300200008002035FA8E3C4C
:104C30000000DC420000B4420000AF43000048C264
:104C4000000096434C5D00209AF8100055F82010A3
:104C5000490845F82010BCE6714890ED010A08307B
:104C6000D0ED010AB0EE681AD6ED001A31EE800AD6
:104C70008DED000AD6ED011A71EEA00ACDED010A04
:104C80008DED021A0121084603F024FF9AF8100066
:104C90003BF81010491C2BF8101045F8204098E6FE
:104CA0001BF098F89AF8100055F82010052919D231
:104CB000D7ED010A97ED000A1FF0A8F910EE100ACF
:104CC000484507DC9AF8100055F82010491C45F8B3
:104CD00020107EE69AF8100055F82010490845F893
:104CE000201076E63BF81010491C2BF8101045F800
:104CF00020406EE681F8308081F8318081ED068AAF
:104D000000200BF009FAF0EE480AB0EE480A002045
:104D100001F048FE9AF810003BF81010491C2BF8DF
:104D2000101056E60F4681F8308087ED068A002085
:104D30000BF0F2F9F0EE480AB0EE480A002001F05C
:104D400031FE97F83200012885D19AF810003BF81F
:104D50001010491C2BF8101045F8204096ED000A61
:104D60008DED000AD6ED010ACDED010ACDED028AE6
:104D7000B0EE681A03B00121BDEC048B0846BDE813
:104D8000F04F03F0A7BE1BF025F89AF8100055F875
:104D90002010052919D2D7ED010A97ED000A1FF05E
:104DA00035F910EE100A484507DC9AF8100055F85E
:104DB0002010491C45F820100BE69AF8100055F811
:104DC0002010490845F8201003E63BF81010491C54
:104DD0002BF8101045F820401248042101701248A9
:104DE00080ED018A80ED028A104880ED008A80ED16
:104DF000018AEEE581F830400D4890ED260A81EDFC
:104E0000060A00200BF088F903B0B0EE480ABDECAA
:104E1000048BFBEE0E0A0220BDE8F04F01F0C2BD8C
:104E2000D80F0020840B0020A8570020280E002057
:104E3000581C00202DE9F04F2DED048B83B09FED21
:104E4000FE9AFF4FDFF8F4B3F87B3BF810009FEDBC
:104E5000FD8A0BF5A5680024A8F57F7607F15809AF
:104E600007F1600AA6F1C80500282FD001287DD0DF
:104E7000DFEDF58A02287AD0F44F032878D0DFF8E6
:104E8000D0B3F6EE009A042873D0052872D0062815
:104E900071D0072870D008286FD009286ED00A2852
:104EA0006DD00B286CD00C286BD0DFF890A3DFF806
:104EB00090930D2866D00E287ED00F287DD003B0A9
:104EC000BDEC048BBDE8F04F1AF084BF1BF0FAF97B
:104ED000E04991ED070ABCEEC00A10EE100A83B259
:104EE000D7483030038091ED080ABCEEC00A10EEBE
:104EF000101A1FFA81FCA0F802C000210020D64A37
:104F000032F810E0734515D102EB4002128B944544
:104F100010D1D24A09EB810E02EB800292ED000A19
:104F20008EED000A92ED200A0AEB810282ED000A62
:104F3000491C89B2022903D2401C80B20C28DED35E
:104F40001AF048FFB0EE481A88ED021A98ED000AF0
:104F5000D8ED010A8DED000ACDED010A8DED021AA2
:104F60000121084603F0B6FD01220CE026E055E0E1
:104F700096E0C0E0FBE027E185E1C9E10CE236E222
:104F800071E29DE2D7E2F87B2BF8102045F8204033
:104F90004FF4C87146F82010B14882704CF250317D
:104FA0000180C8214161B6EE080A80ED060A03B00F
:104FB000BDEC048BBDE8F08FF7E224E31AF00AFFA2
:104FC000F87B56F8201011B1491E46F8201056F80B
:104FD00020000028EBD199ED000ADAED000AB0EECE
:104FE000481AD8ED001A31EE800A8DED000AD8ED8E
:104FF000011A71EEA00ACDED010A8DED021A012110
:10500000084603F067FDF87B3BF81010491C2BF8AD
:10501000101045F8204046F82040C8E71AF0DAFEA4
:10502000F87B55F82000052819D28E48D0ED010AEA
:1050300090ED000A1EF0EAFF10EE100A8A4988423D
:1050400006DCF87B55F82010491C45F82010AEE727
:10505000F87B55F82010490845F82010A7E799ED8E
:10506000000ADAED000A98ED001A31EE000A8DED23
:10507000000A98ED011A71EE200ACDED010ACDED7E
:10508000028A0121B0EE681A084603F023FDF87B7E
:105090003BF81010491C2BF8101045F8204086E70B
:1050A0001AF098FE6648C07B55F82010B1F5C87F0D
:1050B00015D297ED1D0AB5EEC00AF1EE10FA01DC2B
:1050C000B1EE400A10EE102A684B9A4203DC491CEC
:1050D00045F820106BE7490845F8201067E73BF8D2
:1050E0001010491C2BF8101045F820404FF4966121
:1050F00046F820105BE7FEF723F88BF830405C4859
:1051000090ED260A8BED060AB0EE490A0020F0EE7B
:10511000400A01F047FC4A4FF97B56F8210030B1B4
:10512000401E46F821004FF4FA6013F0D5FFF87BDB
:1051300056F8200000288AD140F2DC5013F0CCFF52
:105140003E49F87B31F81020521C21F8102045F818
:1051500020404FF47A7146F820104648C82141613A
:10516000C0ED069A01218170042101801FE7FDF73F
:10517000E7FF8BF830403E4890ED260A8BED060A9B
:10518000B0EE490A0020F0EE400A01F00BFC2C4F73
:10519000F87B56F8201011B1491E46F8201056F839
:1051A0002000002896D101200AF0B6FF2349F87BA1
:1051B00031F81020521C21F8102045F8204040F210
:1051C000C44146F82010F2E61AF004FE1C4FF97BA9
:1051D00056F8210030B1401E46F821004FF47A7095
:1051E00013F07AFFF87B56F820000028BED140F279
:1051F000DC5013F071FF99ED000ADAED000AB0EE11
:10520000481AD8ED001A31EE800A8DED000AD8ED6B
:10521000011A71EEA00ACDED010A8DED021A0121ED
:10522000084603F057FC0549F87B31F81020521C62
:1052300021F8102020E0000000000000205C002089
:10524000800F0020000016430000A0428C48002080
:10525000C453002000080020B4970200DC5E002048
:10526000B42B0020300E00200000A04000002041A0
:10527000581C0020D02B002045F820404FF47A71B4
:1052800046F8201093E61AF0A5FDDFF8A8B39BF8C6
:105290000F1055F82100C82815D297ED1D0AB5EE5C
:1052A000C00AF1EE10FA01DCB1EE400A10EE102A4D
:1052B000E14B9A4203DC401C45F8210077E64008A8
:1052C00045F8210073E699ED010ADAED010AB0EE26
:1052D000481AD8ED001A31EE800A8DED000AD8ED9B
:1052E000011A71EEA00ACDED010A8DED021A01211D
:1052F000084603F0EFFBD1499BF80F0031F810206E
:10530000521C21F8102045F8204046F820404EE677
:105310001AF060FDC74EF07B55F82000052819D221
:10532000C748D0ED010A90ED000A1EF06FFE10EEA6
:10533000100AC449884206DCF07B55F82010491C4D
:1053400045F8201033E6F07B55F82010490845F861
:1053500020102CE699ED010ADAED010A98ED001A09
:1053600031EE000A8DED000A98ED011A71EE200A67
:10537000CDED010ACDED028A0121B0EE681A084692
:1053800003F0A8FBAD49F07B31F81020521C21F846
:10539000102045F820400AE61AF01CFDA548C07B05
:1053A00055F82010C82915D297ED1D0AB5EEC00A90
:1053B000F1EE10FA01DCB1EE400A10EE102A9E4B1D
:1053C0009A4203DC491C45F82010F0E5490845F8ED
:1053D0002010ECE5994A32F81010491C22F8101000
:1053E00045F820404FF4966146F82010DFE5FDF7C0
:1053F000A7FE8BF83040944890ED260A8BED060A04
:10540000B0EE490A0020F0EE400A01F0CBFA894FD5
:10541000F97B56F8210030B1401E46F821004FF4C8
:10542000FA6013F059FEF87B56F82000002889D165
:1054300040F2DC5013F050FE8049F87B31F8102028
:10544000521C21F8102045F820404FF47A7146F89C
:1054500020107E48C8214161C0ED069A012181706B
:1054600004210180A3E5FDF76BFE8BF83040764800
:1054700090ED260A8BED060AB0EE490A0020F0EE08
:10548000400A01F08FFA6B4FF87B56F8201011B1EB
:10549000491E46F8201056F82000002895D101201A
:1054A0000AF03AFE6549F87B31F81020521C21F8C9
:1054B000102045F8204040F2C44146F8201076E51F
:1054C0001AF088FC5B4FF97B56F8210030B1401E82
:1054D00046F821004FF47A7013F0FEFDF87B56F881
:1054E00020000028BED140F2DC5013F0F5FD99ED0C
:1054F000010ADAED010AB0EE481AD8ED001A31EED1
:10550000800A8DED000AD8ED011A71EEA00ACDEDEA
:10551000010A8DED021A0121084603F0DBFA474922
:10552000F87B31F81020521C21F8102045F820405B
:1055300046F820403BE51AF04DFC99F80F1055F85D
:105540002100C82815D297ED1D0AB5EEC00AF1EE6C
:1055500010FA01DCB1EE400A10EE102A364B9A42E6
:1055600003DC401C45F8210021E5400845F82100F6
:105570001DE598ED000A8DED000AD8ED010ACDED8C
:10558000010A8DED028AB0EE481A0121084603F0A7
:10559000A1FA99F80F003AF81010491C2AF81010D7
:1055A00045F8204046F8204001E51AF013FC99F830
:1055B0000F0055F8201005291BD22148D0ED010A13
:1055C00090ED000A1EF022FD10EE100A1D498842DF
:1055D00007DC99F80F0055F82010491C45F82010F9
:1055E000E5E499F80F0055F82010490845F8201017
:1055F000DDE43AF81010491C2AF8101045F8204054
:1056000046F82040D3E48BF830400F4890ED260A4E
:105610008BED060A00200AF07FFD03B0B0EE490AC8
:10562000BDEC048BFBEE0E0A0220BDE8F04F01F04A
:10563000B9B90000800F002000002041205C00204C
:10564000300E00200000A040581C0020D02B00206D
:105650002DE9F041002500260E4F3146002005F0CF
:10566000BFF9002428466D1C385C05F0FAF90220C9
:10567000FEF7CAFC641CE4B2802CF3D3761CF6B2AD
:10568000082EEAD34FF4FA70FEF7BEFCBDE8F041F5
:1056900005F006B9287E020010B50220FAF778FE60
:1056A00016F03AFF0B4CE06910F00C0F0FD00A48CF
:1056B00014F068FE0220FAF76BFE16F02DFFE06989
:1056C00010F00C0F01D0022010BD012010BD0020F1
:1056D00010BD000000F00A40005800F010B50E4860
:1056E00001680E4A11400E4A914205D1006800043B
:1056F000000C01D116F0D8FE0B4C0A48E06616F0FB
:105700000BFF0A4814F03EFE0220FAF741FE16F0A5
:1057100003FF606810BD000000E00F400000FF7054
:105720000000051001007BE314F00A40005800F06F
:105730002DE9F05F06468B46284FB869C007FCD1BB
:105740004FEA9B107860CBF38300B8609408DFF8D1
:105750009090DFF890A0DFF890802DE0D8F800005E
:1057600000EA0900504507D1D8F800000004000CF9
:1057700002D1584616F0B2FE30687861BD69E8077C
:10578000FCD115F4887F0FD0D8F8000000EA09009A
:10579000504506D1D8F800000004000C01D116F0E5
:1057A00083FE2846BDE8F09F361D641E24B1B8680C
:1057B00010B97868401C7860002CCFD1D8F8000070
:1057C00000EA0900504506D1D8F800000004000C9A
:1057D00001D116F069FEB869E4E7000000F00A4064
:1057E0000000FF700000051000E00F4010B50A4BEC
:1057F0008C095C60C1F383019960910808E05A69E3
:1058000004C0491E21B19A6812B95A68521C5A60E4
:105810000029F4D110BD000000F00A4010B5034883
:1058200014F086FDBDE81040FFF736BF005800F0C9
:1058300031B504462DED020B2DED048BB3EE0E9A1F
:10584000DDED040A9DED050AF1EE408A9FED191A7F
:1058500080EE810A17F0FAFDDFED179A20EE298A13
:1058600084ED008A15489FED161A90ED0C0A60EE43
:10587000280A80EE810A17F0E9FD20EE290A84ED5E
:10588000010AFBEE0E8AB0EE491AF0EE680AB0EE9D
:10589000480A1AF0C1FC84ED000A94ED010AB0EE4A
:1058A000491AF0EE680A1AF0B7FC84ED010ABDEC63
:1058B000048B3EBD902A7544E12E6542481E0020AF
:1058C000902A75C4034880880346024601460BF0BF
:1058D0004FBF0000101B00202DE9FE43254828493A
:1058E000294A0388244840F21A44244E0068254F70
:1058F0000968DFF898C01268254DA3420BD8B04262
:1059000009DBB94207DB624505D3B5F8128008F11F
:105910000108A5F81280A34229D8B04227DBB9427A
:1059200025DB624523D3688AB0F57A7F1FD91948F1
:10593000008800281BD1B7EE000A85ED100A00246C
:105940006C8215480480542016F064FD134802212F
:105950008DE8130000239FED120A4FF4FA7241F212
:1059600088311048FCF773FF0F490F200880BDE80D
:10597000FE830000100300203803002000001643BF
:10598000340300200000D241300300200000D2C1C7
:1059900008000020140300201E03002000500240D5
:1059A000CDCC4C3E50180020CE02002009F0E2FA87
:1059B0000BF0D4FD0BF038FE64201AF07FFC9FED55
:1059C000230A542016F026FD214CFFF77BFF00210F
:1059D000084605F06EF80121002005F06AF8002164
:1059E0001CA2084604F0BEFF0221002005F061F869
:1059F0000321002005F05DF81AA20221002004F026
:105A0000B1FF0421002005F054F80521002005F025
:105A100050F818A20421002004F0A4FF18A20421C9
:105A2000502004F071FFA088052100EE100A5020DC
:105A3000B8EE400A20F03AF80621002005F039F8C7
:105A400011A20621002004F05FFFBEE70000000065
:105A5000101B0020506C65617365204D6F766520CA
:105A600054687200446F776E205768656E20455306
:105A700043000000426565702042656570000000CB
:105A80005468723A000000005265706F77657220AA
:105A90005768656E205365742055700000B508483E
:105AA0000BF020FC0648BC380BF01CFC05480BF042
:105AB00019FC04485DF804EBBC380BF013BC000083
:105AC000A04C0020284B00202DE9F0412DED048B47
:105AD00084B0A44AA2F14001A1F10C0003F062FAE3
